{
  "contractName": "StakingManager",
  "abi": [
    {
      "inputs": [
        {
          "internalType": "address",
          "name": "_rewardTokenAddress",
          "type": "address"
        },
        {
          "internalType": "uint256",
          "name": "_rewardTokensPerBlock",
          "type": "uint256"
        }
      ],
      "stateMutability": "nonpayable",
      "type": "constructor"
    },
    {
      "anonymous": false,
      "inputs": [
        {
          "indexed": true,
          "internalType": "address",
          "name": "user",
          "type": "address"
        },
        {
          "indexed": true,
          "internalType": "uint256",
          "name": "poolId",
          "type": "uint256"
        },
        {
          "indexed": false,
          "internalType": "uint256",
          "name": "amount",
          "type": "uint256"
        }
      ],
      "name": "Deposit",
      "type": "event"
    },
    {
      "anonymous": false,
      "inputs": [
        {
          "indexed": true,
          "internalType": "address",
          "name": "user",
          "type": "address"
        },
        {
          "indexed": true,
          "internalType": "uint256",
          "name": "poolId",
          "type": "uint256"
        },
        {
          "indexed": false,
          "internalType": "uint256",
          "name": "amount",
          "type": "uint256"
        }
      ],
      "name": "HarvestRewards",
      "type": "event"
    },
    {
      "anonymous": false,
      "inputs": [
        {
          "indexed": true,
          "internalType": "address",
          "name": "previousOwner",
          "type": "address"
        },
        {
          "indexed": true,
          "internalType": "address",
          "name": "newOwner",
          "type": "address"
        }
      ],
      "name": "OwnershipTransferred",
      "type": "event"
    },
    {
      "anonymous": false,
      "inputs": [
        {
          "indexed": false,
          "internalType": "uint256",
          "name": "poolId",
          "type": "uint256"
        }
      ],
      "name": "PoolCreated",
      "type": "event"
    },
    {
      "anonymous": false,
      "inputs": [
        {
          "indexed": true,
          "internalType": "address",
          "name": "user",
          "type": "address"
        },
        {
          "indexed": true,
          "internalType": "uint256",
          "name": "poolId",
          "type": "uint256"
        },
        {
          "indexed": false,
          "internalType": "uint256",
          "name": "amount",
          "type": "uint256"
        }
      ],
      "name": "Withdraw",
      "type": "event"
    },
    {
      "inputs": [],
      "name": "owner",
      "outputs": [
        {
          "internalType": "address",
          "name": "",
          "type": "address"
        }
      ],
      "stateMutability": "view",
      "type": "function",
      "constant": true
    },
    {
      "inputs": [
        {
          "internalType": "uint256",
          "name": "",
          "type": "uint256"
        },
        {
          "internalType": "address",
          "name": "",
          "type": "address"
        }
      ],
      "name": "poolStakers",
      "outputs": [
        {
          "internalType": "uint256",
          "name": "amount",
          "type": "uint256"
        },
        {
          "internalType": "uint256",
          "name": "rewards",
          "type": "uint256"
        },
        {
          "internalType": "uint256",
          "name": "rewardDebt",
          "type": "uint256"
        }
      ],
      "stateMutability": "view",
      "type": "function",
      "constant": true
    },
    {
      "inputs": [
        {
          "internalType": "uint256",
          "name": "",
          "type": "uint256"
        }
      ],
      "name": "pools",
      "outputs": [
        {
          "internalType": "contract IERC20",
          "name": "stakeToken",
          "type": "address"
        },
        {
          "internalType": "uint256",
          "name": "tokensStaked",
          "type": "uint256"
        },
        {
          "internalType": "uint256",
          "name": "lastRewardedBlock",
          "type": "uint256"
        },
        {
          "internalType": "uint256",
          "name": "accumulatedRewardsPerShare",
          "type": "uint256"
        },
        {
          "internalType": "uint256",
          "name": "weighting",
          "type": "uint256"
        }
      ],
      "stateMutability": "view",
      "type": "function",
      "constant": true
    },
    {
      "inputs": [],
      "name": "renounceOwnership",
      "outputs": [],
      "stateMutability": "nonpayable",
      "type": "function"
    },
    {
      "inputs": [],
      "name": "rewardToken",
      "outputs": [
        {
          "internalType": "contract RewardToken",
          "name": "",
          "type": "address"
        }
      ],
      "stateMutability": "view",
      "type": "function",
      "constant": true
    },
    {
      "inputs": [
        {
          "internalType": "address",
          "name": "newOwner",
          "type": "address"
        }
      ],
      "name": "transferOwnership",
      "outputs": [],
      "stateMutability": "nonpayable",
      "type": "function"
    },
    {
      "inputs": [
        {
          "internalType": "contract IERC20",
          "name": "_stakeToken",
          "type": "address"
        },
        {
          "internalType": "uint256",
          "name": "_weighting",
          "type": "uint256"
        }
      ],
      "name": "createPool",
      "outputs": [],
      "stateMutability": "nonpayable",
      "type": "function"
    },
    {
      "inputs": [
        {
          "internalType": "uint256",
          "name": "_poolId",
          "type": "uint256"
        },
        {
          "internalType": "uint256",
          "name": "_amount",
          "type": "uint256"
        }
      ],
      "name": "deposit",
      "outputs": [],
      "stateMutability": "nonpayable",
      "type": "function"
    },
    {
      "inputs": [
        {
          "internalType": "uint256",
          "name": "_poolId",
          "type": "uint256"
        }
      ],
      "name": "withdraw",
      "outputs": [],
      "stateMutability": "nonpayable",
      "type": "function"
    },
    {
      "inputs": [
        {
          "internalType": "uint256",
          "name": "_poolId",
          "type": "uint256"
        }
      ],
      "name": "harvestRewards",
      "outputs": [],
      "stateMutability": "nonpayable",
      "type": "function"
    },
    {
      "inputs": [
        {
          "internalType": "uint256",
          "name": "_poolId",
          "type": "uint256"
        }
      ],
      "name": "getTotalRewards",
      "outputs": [
        {
          "internalType": "uint256",
          "name": "",
          "type": "uint256"
        }
      ],
      "stateMutability": "view",
      "type": "function",
      "constant": true
    },
    {
      "inputs": [
        {
          "internalType": "uint256",
          "name": "_poolId",
          "type": "uint256"
        },
        {
          "internalType": "address",
          "name": "_user",
          "type": "address"
        }
      ],
      "name": "getStaked",
      "outputs": [
        {
          "internalType": "uint256",
          "name": "",
          "type": "uint256"
        }
      ],
      "stateMutability": "view",
      "type": "function",
      "constant": true
    },
    {
      "inputs": [
        {
          "internalType": "uint256",
          "name": "_poolId",
          "type": "uint256"
        }
      ],
      "name": "getTotalStaked",
      "outputs": [
        {
          "internalType": "uint256",
          "name": "",
          "type": "uint256"
        }
      ],
      "stateMutability": "view",
      "type": "function",
      "constant": true
    }
  ],
  "bytecode": "0x60806040523480156200001157600080fd5b50604051620020a5380380620020a58339818101604052810190620000379190620001a1565b620000576200004b620000a760201b60201c565b620000af60201b60201c565b81600160006101000a81548173ffffffffffffffffffffffffffffffffffffffff021916908373ffffffffffffffffffffffffffffffffffffffff16021790555080600281905550505062000254565b600033905090565b60008060009054906101000a900473ffffffffffffffffffffffffffffffffffffffff169050816000806101000a81548173ffffffffffffffffffffffffffffffffffffffff021916908373ffffffffffffffffffffffffffffffffffffffff1602179055508173ffffffffffffffffffffffffffffffffffffffff168173ffffffffffffffffffffffffffffffffffffffff167f8be0079c531659141344cd1fd0a4f28419497f9722a3daafe3b4186f6b6457e060405160405180910390a35050565b600081519050620001848162000220565b92915050565b6000815190506200019b816200023a565b92915050565b60008060408385031215620001b557600080fd5b6000620001c58582860162000173565b9250506020620001d8858286016200018a565b9150509250929050565b6000620001ef82620001f6565b9050919050565b600073ffffffffffffffffffffffffffffffffffffffff82169050919050565b6000819050919050565b6200022b81620001e2565b81146200023757600080fd5b50565b620002458162000216565b81146200025157600080fd5b50565b611e4180620002646000396000f3fe608060405234801561001057600080fd5b50600436106100cf5760003560e01c8063715018a61161008c578063b798aaae11610066578063b798aaae14610214578063e2bbb15814610246578063f2fde38b14610262578063f7c618c11461027e576100cf565b8063715018a6146101b85780638da5cb5b146101c2578063ac4afa38146101e0576100cf565b806312d36171146100d45780632e1a7d4d146100f05780632f8899f31461010c57806340531d5d1461013c578063552164ee1461016c57806357126d0d1461019c575b600080fd5b6100ee60048036038101906100e991906114c7565b61029c565b005b61010a60048036038101906101059190611503565b6103f7565b005b61012660048036038101906101219190611503565b6105e1565b6040516101339190611941565b60405180910390f35b6101566004803603810190610151919061152c565b61063b565b6040516101639190611941565b60405180910390f35b61018660048036038101906101819190611503565b610699565b6040516101939190611941565b60405180910390f35b6101b660048036038101906101b19190611503565b6107f1565b005b6101c0610a29565b005b6101ca610a3d565b6040516101d79190611756565b60405180910390f35b6101fa60048036038101906101f59190611503565b610a66565b60405161020b9594939291906117d1565b60405180910390f35b61022e6004803603810190610229919061152c565b610acc565b60405161023d9392919061195c565b60405180910390f35b610260600480360381019061025b9190611568565b610b03565b005b61027c60048036038101906102779190611475565b610cf7565b005b610286610d7b565b6040516102939190611824565b60405180910390f35b6102a4610da1565b6102ac6113dc565b82816000019073ffffffffffffffffffffffffffffffffffffffff16908173ffffffffffffffffffffffffffffffffffffffff168152505081816080018181525050600381908060018154018082558091505060019003906000526020600020906005020160009091909190915060008201518160000160006101000a81548173ffffffffffffffffffffffffffffffffffffffff021916908373ffffffffffffffffffffffffffffffffffffffff1602179055506020820151816001015560408201518160020155606082015181600301556080820151816004015550506000600160038054905061039f9190611aa6565b905082600460008282546103b391906119c5565b925050819055507ffa88d81eaffbf548e3ffc6c6458827ce9906ad714060746b80909cdf8d1d7ef7816040516103e99190611941565b60405180910390a150505050565b600060038281548110610433577f4e487b7100000000000000000000000000000000000000000000000000000000600052603260045260246000fd5b9060005260206000209060050201905060006005600084815260200190815260200160002060003373ffffffffffffffffffffffffffffffffffffffff1673ffffffffffffffffffffffffffffffffffffffff1681526020019081526020016000209050600081600001549050600081116104e3576040517f08c379a00000000000000000000000000000000000000000000000000000000081526004016104da906118a1565b60405180910390fd5b6104ec846107f1565b6000826000018190555064e8d4a51000836003015483600001546105109190611a4c565b61051a9190611a1b565b8260020181905550808360010160008282546105369190611aa6565b92505081905550833373ffffffffffffffffffffffffffffffffffffffff167ff279e6a1f5e320cca91135676d9cb6e44ca8a08c0b88342bcdb1144f6511b568836040516105849190611941565b60405180910390a36105db33828560000160009054906101000a900473ffffffffffffffffffffffffffffffffffffffff1673ffffffffffffffffffffffffffffffffffffffff16610e1f9092919063ffffffff16565b50505050565b6000806003838154811061061e577f4e487b7100000000000000000000000000000000000000000000000000000000600052603260045260246000fd5b906000526020600020906005020190508060010154915050919050565b60006005600084815260200190815260200160002060008373ffffffffffffffffffffffffffffffffffffffff1673ffffffffffffffffffffffffffffffffffffffff16815260200190815260200160002060000154905092915050565b600080600383815481106106d6577f4e487b7100000000000000000000000000000000000000000000000000000000600052603260045260246000fd5b9060005260206000209060050201905060008160010154146107e65760006005600085815260200190815260200160002060003373ffffffffffffffffffffffffffffffffffffffff1673ffffffffffffffffffffffffffffffffffffffff168152602001908152602001600020905060008260020154436107589190611aa6565b9050600061076586610ea5565b826107709190611a4c565b90506000846001015464e8d4a510008361078a9190611a4c565b6107949190611a1b565b85600301546107a391906119c5565b90506000846002015464e8d4a510008387600001546107c29190611a4c565b6107cc9190611a1b565b6107d69190611aa6565b90508096505050505050506107ec565b60009150505b919050565b6107fa81610f14565b600060038281548110610836577f4e487b7100000000000000000000000000000000000000000000000000000000600052603260045260246000fd5b9060005260206000209060050201905060006005600084815260200190815260200160002060003373ffffffffffffffffffffffffffffffffffffffff1673ffffffffffffffffffffffffffffffffffffffff16815260200190815260200160002090506000816002015464e8d4a51000846003015484600001546108bb9190611a4c565b6108c59190611a1b565b6108cf9190611aa6565b9050600081141561090e5764e8d4a51000836003015483600001546108f49190611a4c565b6108fe9190611a1b565b8260020181905550505050610a26565b6000826001018190555064e8d4a51000836003015483600001546109329190611a4c565b61093c9190611a1b565b8260020181905550833373ffffffffffffffffffffffffffffffffffffffff167fbc9a2b6a61d1b15cc1adefc67f9e37aaca7c34f43080954178be6eb9c6f23df68360405161098b9190611941565b60405180910390a3600160009054906101000a900473ffffffffffffffffffffffffffffffffffffffff1673ffffffffffffffffffffffffffffffffffffffff166340c10f1933836040518363ffffffff1660e01b81526004016109f09291906117a8565b600060405180830381600087803b158015610a0a57600080fd5b505af1158015610a1e573d6000803e3d6000fd5b505050505050505b50565b610a31610da1565b610a3b6000610ff2565b565b60008060009054906101000a900473ffffffffffffffffffffffffffffffffffffffff16905090565b60038181548110610a7657600080fd5b90600052602060002090600502016000915090508060000160009054906101000a900473ffffffffffffffffffffffffffffffffffffffff16908060010154908060020154908060030154908060040154905085565b6005602052816000526040600020602052806000526040600020600091509150508060000154908060010154908060020154905083565b60008111610b46576040517f08c379a0000000000000000000000000000000000000000000000000000000008152600401610b3d906118e1565b60405180910390fd5b600060038381548110610b82577f4e487b7100000000000000000000000000000000000000000000000000000000600052603260045260246000fd5b9060005260206000209060050201905060006005600085815260200190815260200160002060003373ffffffffffffffffffffffffffffffffffffffff1673ffffffffffffffffffffffffffffffffffffffff1681526020019081526020016000209050610bef846107f1565b82816000016000828254610c0391906119c5565b9250508190555064e8d4a5100082600301548260000154610c249190611a4c565b610c2e9190611a1b565b816002018190555082826001016000828254610c4a91906119c5565b92505081905550833373ffffffffffffffffffffffffffffffffffffffff167f90890809c654f11d6e72a28fa60149770a0d11ec6c92319d6ceb2bb0a4ea1a1585604051610c989190611941565b60405180910390a3610cf13330858560000160009054906101000a900473ffffffffffffffffffffffffffffffffffffffff1673ffffffffffffffffffffffffffffffffffffffff166110b6909392919063ffffffff16565b50505050565b610cff610da1565b600073ffffffffffffffffffffffffffffffffffffffff168173ffffffffffffffffffffffffffffffffffffffff161415610d6f576040517f08c379a0000000000000000000000000000000000000000000000000000000008152600401610d6690611861565b60405180910390fd5b610d7881610ff2565b50565b600160009054906101000a900473ffffffffffffffffffffffffffffffffffffffff1681565b610da961113f565b73ffffffffffffffffffffffffffffffffffffffff16610dc7610a3d565b73ffffffffffffffffffffffffffffffffffffffff1614610e1d576040517f08c379a0000000000000000000000000000000000000000000000000000000008152600401610e14906118c1565b60405180910390fd5b565b610ea08363a9059cbb60e01b8484604051602401610e3e9291906117a8565b604051602081830303815290604052907bffffffffffffffffffffffffffffffffffffffffffffffffffffffff19166020820180517bffffffffffffffffffffffffffffffffffffffffffffffffffffffff8381831617835250505050611147565b505050565b600060045460038381548110610ee4577f4e487b7100000000000000000000000000000000000000000000000000000000600052603260045260246000fd5b906000526020600020906005020160040154600254610f039190611a4c565b610f0d9190611a1b565b9050919050565b600060038281548110610f50577f4e487b7100000000000000000000000000000000000000000000000000000000600052603260045260246000fd5b90600052602060002090600502019050600081600101541415610f7c5743816002018190555050610fef565b6000816002015443610f8e9190611aa6565b90506000610f9b84610ea5565b82610fa69190611a4c565b9050826001015464e8d4a5100082610fbe9190611a4c565b610fc89190611a1b565b836003016000828254610fdb91906119c5565b925050819055504383600201819055505050505b50565b60008060009054906101000a900473ffffffffffffffffffffffffffffffffffffffff169050816000806101000a81548173ffffffffffffffffffffffffffffffffffffffff021916908373ffffffffffffffffffffffffffffffffffffffff1602179055508173ffffffffffffffffffffffffffffffffffffffff168173ffffffffffffffffffffffffffffffffffffffff167f8be0079c531659141344cd1fd0a4f28419497f9722a3daafe3b4186f6b6457e060405160405180910390a35050565b611139846323b872dd60e01b8585856040516024016110d793929190611771565b604051602081830303815290604052907bffffffffffffffffffffffffffffffffffffffffffffffffffffffff19166020820180517bffffffffffffffffffffffffffffffffffffffffffffffffffffffff8381831617835250505050611147565b50505050565b600033905090565b60006111a9826040518060400160405280602081526020017f5361666545524332303a206c6f772d6c6576656c2063616c6c206661696c65648152508573ffffffffffffffffffffffffffffffffffffffff1661120e9092919063ffffffff16565b905060008151111561120957808060200190518101906111c9919061149e565b611208576040517f08c379a00000000000000000000000000000000000000000000000000000000081526004016111ff90611921565b60405180910390fd5b5b505050565b606061121d8484600085611226565b90509392505050565b60608247101561126b576040517f08c379a000000000000000000000000000000000000000000000000000000000815260040161126290611881565b60405180910390fd5b6000808673ffffffffffffffffffffffffffffffffffffffff168587604051611294919061173f565b60006040518083038185875af1925050503d80600081146112d1576040519150601f19603f3d011682016040523d82523d6000602084013e6112d6565b606091505b50915091506112e7878383876112f3565b92505050949350505050565b606083156113565760008351141561134e5761130e85611369565b61134d576040517f08c379a000000000000000000000000000000000000000000000000000000000815260040161134490611901565b60405180910390fd5b5b829050611361565b611360838361138c565b5b949350505050565b6000808273ffffffffffffffffffffffffffffffffffffffff163b119050919050565b60008251111561139f5781518083602001fd5b806040517f08c379a00000000000000000000000000000000000000000000000000000000081526004016113d3919061183f565b60405180910390fd5b6040518060a00160405280600073ffffffffffffffffffffffffffffffffffffffff168152602001600081526020016000815260200160008152602001600081525090565b60008135905061143081611daf565b92915050565b60008151905061144581611dc6565b92915050565b60008135905061145a81611ddd565b92915050565b60008135905061146f81611df4565b92915050565b60006020828403121561148757600080fd5b600061149584828501611421565b91505092915050565b6000602082840312156114b057600080fd5b60006114be84828501611436565b91505092915050565b600080604083850312156114da57600080fd5b60006114e88582860161144b565b92505060206114f985828601611460565b9150509250929050565b60006020828403121561151557600080fd5b600061152384828501611460565b91505092915050565b6000806040838503121561153f57600080fd5b600061154d85828601611460565b925050602061155e85828601611421565b9150509250929050565b6000806040838503121561157b57600080fd5b600061158985828601611460565b925050602061159a85828601611460565b9150509250929050565b6115ad81611ada565b82525050565b60006115be82611993565b6115c881856119a9565b93506115d8818560208601611b7c565b80840191505092915050565b6115ed81611b34565b82525050565b6115fc81611b58565b82525050565b600061160d8261199e565b61161781856119b4565b9350611627818560208601611b7c565b61163081611c0d565b840191505092915050565b60006116486026836119b4565b915061165382611c1e565b604082019050919050565b600061166b6026836119b4565b915061167682611c6d565b604082019050919050565b600061168e601d836119b4565b915061169982611cbc565b602082019050919050565b60006116b16020836119b4565b91506116bc82611ce5565b602082019050919050565b60006116d4601c836119b4565b91506116df82611d0e565b602082019050919050565b60006116f7601d836119b4565b915061170282611d37565b602082019050919050565b600061171a602a836119b4565b915061172582611d60565b604082019050919050565b61173981611b2a565b82525050565b600061174b82846115b3565b915081905092915050565b600060208201905061176b60008301846115a4565b92915050565b600060608201905061178660008301866115a4565b61179360208301856115a4565b6117a06040830184611730565b949350505050565b60006040820190506117bd60008301856115a4565b6117ca6020830184611730565b9392505050565b600060a0820190506117e660008301886115e4565b6117f36020830187611730565b6118006040830186611730565b61180d6060830185611730565b61181a6080830184611730565b9695505050505050565b600060208201905061183960008301846115f3565b92915050565b600060208201905081810360008301526118598184611602565b905092915050565b6000602082019050818103600083015261187a8161163b565b9050919050565b6000602082019050818103600083015261189a8161165e565b9050919050565b600060208201905081810360008301526118ba81611681565b9050919050565b600060208201905081810360008301526118da816116a4565b9050919050565b600060208201905081810360008301526118fa816116c7565b9050919050565b6000602082019050818103600083015261191a816116ea565b9050919050565b6000602082019050818103600083015261193a8161170d565b9050919050565b60006020820190506119566000830184611730565b92915050565b60006060820190506119716000830186611730565b61197e6020830185611730565b61198b6040830184611730565b949350505050565b600081519050919050565b600081519050919050565b600081905092915050565b600082825260208201905092915050565b60006119d082611b2a565b91506119db83611b2a565b9250827fffffffffffffffffffffffffffffffffffffffffffffffffffffffffffffffff03821115611a1057611a0f611baf565b5b828201905092915050565b6000611a2682611b2a565b9150611a3183611b2a565b925082611a4157611a40611bde565b5b828204905092915050565b6000611a5782611b2a565b9150611a6283611b2a565b9250817fffffffffffffffffffffffffffffffffffffffffffffffffffffffffffffffff0483118215151615611a9b57611a9a611baf565b5b828202905092915050565b6000611ab182611b2a565b9150611abc83611b2a565b925082821015611acf57611ace611baf565b5b828203905092915050565b6000611ae582611b0a565b9050919050565b60008115159050919050565b6000611b0382611ada565b9050919050565b600073ffffffffffffffffffffffffffffffffffffffff82169050919050565b6000819050919050565b6000611b3f82611b46565b9050919050565b6000611b5182611b0a565b9050919050565b6000611b6382611b6a565b9050919050565b6000611b7582611b0a565b9050919050565b60005b83811015611b9a578082015181840152602081019050611b7f565b83811115611ba9576000848401525b50505050565b7f4e487b7100000000000000000000000000000000000000000000000000000000600052601160045260246000fd5b7f4e487b7100000000000000000000000000000000000000000000000000000000600052601260045260246000fd5b6000601f19601f8301169050919050565b7f4f776e61626c653a206e6577206f776e657220697320746865207a65726f206160008201527f6464726573730000000000000000000000000000000000000000000000000000602082015250565b7f416464726573733a20696e73756666696369656e742062616c616e636520666f60008201527f722063616c6c0000000000000000000000000000000000000000000000000000602082015250565b7f576974686472617720616d6f756e742063616e2774206265207a65726f000000600082015250565b7f4f776e61626c653a2063616c6c6572206973206e6f7420746865206f776e6572600082015250565b7f4465706f73697420616d6f756e742063616e2774206265207a65726f00000000600082015250565b7f416464726573733a2063616c6c20746f206e6f6e2d636f6e7472616374000000600082015250565b7f5361666545524332303a204552433230206f7065726174696f6e20646964206e60008201527f6f74207375636365656400000000000000000000000000000000000000000000602082015250565b611db881611ada565b8114611dc357600080fd5b50565b611dcf81611aec565b8114611dda57600080fd5b50565b611de681611af8565b8114611df157600080fd5b50565b611dfd81611b2a565b8114611e0857600080fd5b5056fea2646970667358221220719b1724c7f9016c4880d7f5dc65027650abaca43d57938d2366379d16cac08b64736f6c63430008040033",
  "immutableReferences": {},
  "source": "//SPDX-License-Identifier: Unlicense\r\npragma solidity 0.8.4;\r\n\r\n\r\nimport \"@openzeppelin/contracts/token/ERC20/IERC20.sol\";\r\nimport \"@openzeppelin/contracts/token/ERC20/utils/SafeERC20.sol\";\r\nimport \"@openzeppelin/contracts/access/Ownable.sol\";\r\nimport \"./RewardToken.sol\";\r\n\r\ncontract StakingManager is Ownable{\r\n    using SafeERC20 for IERC20; // Wrappers around ERC20 operations that throw on failure\r\n\r\n    RewardToken public rewardToken; // Token to be payed as reward\r\n\r\n    uint256 private rewardTokensPerBlock; // Number of reward tokens minted per block\r\n    uint256 private constant REWARDS_PRECISION = 1e12; // A big number to perform mul and div operations\r\n\r\n    // Staking user for a pool\r\n    struct PoolStaker {\r\n        uint256 amount; // The tokens quantity the user has staked.\r\n        uint256 rewards; // The reward tokens quantity the user can harvest\r\n        uint256 rewardDebt; // The amount relative to accumulatedRewardsPerShare the user can't get as reward\r\n    }\r\n\r\n    // Staking pool\r\n    struct Pool {\r\n        IERC20 stakeToken; // Token to be staked\r\n        uint256 tokensStaked; // Total tokens staked\r\n        uint256 lastRewardedBlock; // Last block number the user had their rewards calculated\r\n        uint256 accumulatedRewardsPerShare; // Accumulated rewards per share times REWARDS_PRECISION\r\n        uint256 weighting; // weighting of rewards per block\r\n    }\r\n\r\n    Pool[] public pools; // Staking pools\r\n\r\n    // Total weighting of pools\r\n    uint256 totalWeighting;\r\n\r\n    // Mapping poolId => staker address => PoolStaker\r\n    mapping(uint256 => mapping(address => PoolStaker)) public poolStakers;\r\n\r\n    // Events\r\n    event Deposit(address indexed user, uint256 indexed poolId, uint256 amount);\r\n    event Withdraw(address indexed user, uint256 indexed poolId, uint256 amount);\r\n    event HarvestRewards(address indexed user, uint256 indexed poolId, uint256 amount);\r\n    event PoolCreated(uint256 poolId);\r\n\r\n    // Constructor\r\n    constructor(address _rewardTokenAddress, uint256 _rewardTokensPerBlock) {\r\n        rewardToken = RewardToken(_rewardTokenAddress);\r\n        rewardTokensPerBlock = _rewardTokensPerBlock;\r\n    }\r\n\r\n    /**\r\n     * @dev Create a new staking pool\r\n     */\r\n    function createPool(IERC20 _stakeToken, uint256 _weighting) external onlyOwner {\r\n        Pool memory pool;\r\n        pool.stakeToken = _stakeToken;\r\n        pool.weighting = _weighting;\r\n        pools.push(pool);\r\n        uint256 poolId = pools.length - 1;\r\n        totalWeighting += _weighting;\r\n        emit PoolCreated(poolId);\r\n    }\r\n\r\n    /**\r\n     * @dev Deposit tokens to an existing pool\r\n     */\r\n    function deposit(uint256 _poolId, uint256 _amount) external {\r\n        require(_amount > 0, \"Deposit amount can't be zero\");\r\n        Pool storage pool = pools[_poolId];\r\n        PoolStaker storage staker = poolStakers[_poolId][msg.sender];\r\n\r\n        // Update pool stakers\r\n        harvestRewards(_poolId);\r\n\r\n        // Update current staker\r\n        staker.amount += _amount;\r\n        staker.rewardDebt = staker.amount * pool.accumulatedRewardsPerShare / REWARDS_PRECISION;\r\n\r\n        // Update pool\r\n        pool.tokensStaked += _amount;\r\n\r\n        // Deposit tokens\r\n        emit Deposit(msg.sender, _poolId, _amount);\r\n        pool.stakeToken.safeTransferFrom(\r\n            address(msg.sender),\r\n            address(this),\r\n            _amount\r\n        );\r\n    }\r\n\r\n    /**\r\n     * @dev Withdraw all tokens from an existing pool\r\n     */\r\n    function withdraw(uint256 _poolId) external {\r\n        Pool storage pool = pools[_poolId];\r\n        PoolStaker storage staker = poolStakers[_poolId][msg.sender];\r\n        uint256 amount = staker.amount;\r\n        require(amount > 0, \"Withdraw amount can't be zero\");\r\n\r\n        // Pay rewards\r\n        harvestRewards(_poolId);\r\n\r\n        // Update staker\r\n        staker.amount = 0;\r\n        staker.rewardDebt = staker.amount * pool.accumulatedRewardsPerShare / REWARDS_PRECISION;\r\n\r\n        // Update pool\r\n        pool.tokensStaked -= amount;\r\n\r\n        // Withdraw tokens\r\n        emit Withdraw(msg.sender, _poolId, amount);\r\n        pool.stakeToken.safeTransfer(\r\n            address(msg.sender),\r\n            amount\r\n        );\r\n    }\r\n\r\n    /**\r\n     * @dev Harvest user rewards from a given pool id\r\n     */\r\n    function harvestRewards(uint256 _poolId) public {\r\n        updatePoolRewards(_poolId);\r\n        Pool storage pool = pools[_poolId];\r\n        PoolStaker storage staker = poolStakers[_poolId][msg.sender];\r\n        uint256 rewardsToHarvest = (staker.amount * pool.accumulatedRewardsPerShare / REWARDS_PRECISION) - staker.rewardDebt;\r\n        if (rewardsToHarvest == 0) {\r\n            staker.rewardDebt = staker.amount * pool.accumulatedRewardsPerShare / REWARDS_PRECISION;\r\n            return;\r\n        }\r\n        staker.rewards = 0;\r\n        staker.rewardDebt = staker.amount * pool.accumulatedRewardsPerShare / REWARDS_PRECISION;\r\n        emit HarvestRewards(msg.sender, _poolId, rewardsToHarvest);\r\n        rewardToken.mint(msg.sender, rewardsToHarvest);\r\n    }\r\n\r\n    /**\r\n     * @dev Update pool's accumulatedRewardsPerShare and lastRewardedBlock\r\n     */\r\n    function updatePoolRewards(uint256 _poolId) private {\r\n        Pool storage pool = pools[_poolId];\r\n        if (pool.tokensStaked == 0) {\r\n            pool.lastRewardedBlock = block.number;\r\n            return;\r\n        }\r\n        uint256 blocksSinceLastReward = block.number - pool.lastRewardedBlock;\r\n        uint256 rewards = blocksSinceLastReward * getPoolRewardsPerBlock(_poolId);\r\n        pool.accumulatedRewardsPerShare += (rewards * REWARDS_PRECISION / pool.tokensStaked);\r\n        pool.lastRewardedBlock = block.number;\r\n    }\r\n\r\n    /**\r\n     * @dev Get pool ratio of rewards\r\n     */\r\n    function getPoolRewardsPerBlock(uint256 _poolId) private view returns(uint256) {\r\n\r\n        return rewardTokensPerBlock * pools[_poolId].weighting / totalWeighting;\r\n    }\r\n    \r\n    /**\r\n     * @dev Get user total rewards\r\n     */\r\n    function getTotalRewards(uint256 _poolId) public view returns(uint256) {\r\n        Pool storage pool = pools[_poolId];\r\n\r\n        if (pool.tokensStaked != 0) {\r\n\r\n            PoolStaker storage staker = poolStakers[_poolId][msg.sender];\r\n\r\n            uint256 blocksSinceLastReward = block.number - pool.lastRewardedBlock;\r\n            uint256 rewards = blocksSinceLastReward * getPoolRewardsPerBlock(_poolId);\r\n            uint256 accumulatedRewardsPerShare = pool.accumulatedRewardsPerShare + (rewards * REWARDS_PRECISION / pool.tokensStaked);\r\n            uint256 rewardsToHarvest = (staker.amount * accumulatedRewardsPerShare / REWARDS_PRECISION) - staker.rewardDebt;\r\n\r\n            return rewardsToHarvest;\r\n        }\r\n\r\n        return 0;\r\n    }\r\n\r\n    /**\r\n     * @dev Get user staked\r\n     */\r\n    function getStaked(uint256 _poolId, address _user) public view returns(uint256) {\r\n        return poolStakers[_poolId][_user].amount;\r\n    }\r\n\r\n    /**\r\n     * @dev Get pool total staked\r\n     */\r\n    function getTotalStaked(uint256 _poolId) public view returns(uint256) {\r\n        Pool storage pool = pools[_poolId];\r\n        return pool.tokensStaked;\r\n    }\r\n}\r\n",
  "sourcePath": "D:/OneDrive - office 365 students and teachers/Code/Dapp-demo/frontend/src/contracts/StakingManager.sol",
  "compiler": {
    "name": "solc",
    "version": "0.8.4+commit.c7e474f2.Emscripten.clang"
  },
  "schemaVersion": "3.2.3",
  "updatedAt": "2022-12-04T01:03:15.128Z",
  "networkType": "ethereum",
  "devdoc": {
    "kind": "dev",
    "methods": {
      "createPool(address,uint256)": {
        "details": "Create a new staking pool"
      },
      "deposit(uint256,uint256)": {
        "details": "Deposit tokens to an existing pool"
      },
      "getStaked(uint256,address)": {
        "details": "Get user staked"
      },
      "getTotalRewards(uint256)": {
        "details": "Get user total rewards"
      },
      "getTotalStaked(uint256)": {
        "details": "Get pool total staked"
      },
      "harvestRewards(uint256)": {
        "details": "Harvest user rewards from a given pool id"
      },
      "owner()": {
        "details": "Returns the address of the current owner."
      },
      "renounceOwnership()": {
        "details": "Leaves the contract without owner. It will not be possible to call `onlyOwner` functions anymore. Can only be called by the current owner. NOTE: Renouncing ownership will leave the contract without an owner, thereby removing any functionality that is only available to the owner."
      },
      "transferOwnership(address)": {
        "details": "Transfers ownership of the contract to a new account (`newOwner`). Can only be called by the current owner."
      },
      "withdraw(uint256)": {
        "details": "Withdraw all tokens from an existing pool"
      }
    },
    "version": 1
  },
  "userdoc": {
    "kind": "user",
    "methods": {},
    "version": 1
  }
}