{
  "contractName": "TestTokenClaimer",
  "abi": [
    {
      "anonymous": false,
      "inputs": [
        {
          "indexed": true,
          "internalType": "address",
          "name": "previousOwner",
          "type": "address"
        },
        {
          "indexed": true,
          "internalType": "address",
          "name": "newOwner",
          "type": "address"
        }
      ],
      "name": "OwnershipTransferred",
      "type": "event"
    },
    {
      "inputs": [],
      "name": "owner",
      "outputs": [
        {
          "internalType": "address",
          "name": "",
          "type": "address"
        }
      ],
      "stateMutability": "view",
      "type": "function",
      "constant": true
    },
    {
      "inputs": [],
      "name": "renounceOwnership",
      "outputs": [],
      "stateMutability": "nonpayable",
      "type": "function"
    },
    {
      "inputs": [
        {
          "internalType": "address",
          "name": "newOwner",
          "type": "address"
        }
      ],
      "name": "transferOwnership",
      "outputs": [],
      "stateMutability": "nonpayable",
      "type": "function"
    },
    {
      "inputs": [
        {
          "internalType": "address",
          "name": "testToken",
          "type": "address"
        }
      ],
      "name": "claimTst",
      "outputs": [],
      "stateMutability": "nonpayable",
      "type": "function"
    }
  ],
  "bytecode": "0x608060405234801561001057600080fd5b5061002d61002261003260201b60201c565b61003a60201b60201c565b6100fe565b600033905090565b60008060009054906101000a900473ffffffffffffffffffffffffffffffffffffffff169050816000806101000a81548173ffffffffffffffffffffffffffffffffffffffff021916908373ffffffffffffffffffffffffffffffffffffffff1602179055508173ffffffffffffffffffffffffffffffffffffffff168173ffffffffffffffffffffffffffffffffffffffff167f8be0079c531659141344cd1fd0a4f28419497f9722a3daafe3b4186f6b6457e060405160405180910390a35050565b61078c8061010d6000396000f3fe608060405234801561001057600080fd5b506004361061004c5760003560e01c8063715018a6146100515780638da5cb5b1461005b578063e3012f7d14610079578063f2fde38b14610095575b600080fd5b6100596100b1565b005b6100636100c5565b6040516100709190610573565b60405180910390f35b610093600480360381019061008e9190610471565b6100ee565b005b6100af60048036038101906100aa9190610471565b610264565b005b6100b96102e8565b6100c36000610366565b565b60008060009054906101000a900473ffffffffffffffffffffffffffffffffffffffff16905090565b6000683635c9adc5dea000009050808273ffffffffffffffffffffffffffffffffffffffff166370a08231306040518263ffffffff1660e01b81526004016101369190610573565b60206040518083038186803b15801561014e57600080fd5b505afa158015610162573d6000803e3d6000fd5b505050506040513d601f19601f8201168201806040525081019061018691906104c3565b116101c6576040517f08c379a00000000000000000000000000000000000000000000000000000000081526004016101bd906105d7565b60405180910390fd5b600033905060008290508373ffffffffffffffffffffffffffffffffffffffff1663a9059cbb83836040518363ffffffff1660e01b815260040161020b92919061058e565b602060405180830381600087803b15801561022557600080fd5b505af1158015610239573d6000803e3d6000fd5b505050506040513d601f19601f8201168201806040525081019061025d919061049a565b5050505050565b61026c6102e8565b600073ffffffffffffffffffffffffffffffffffffffff168173ffffffffffffffffffffffffffffffffffffffff1614156102dc576040517f08c379a00000000000000000000000000000000000000000000000000000000081526004016102d3906105b7565b60405180910390fd5b6102e581610366565b50565b6102f061042a565b73ffffffffffffffffffffffffffffffffffffffff1661030e6100c5565b73ffffffffffffffffffffffffffffffffffffffff1614610364576040517f08c379a000000000000000000000000000000000000000000000000000000000815260040161035b906105f7565b60405180910390fd5b565b60008060009054906101000a900473ffffffffffffffffffffffffffffffffffffffff169050816000806101000a81548173ffffffffffffffffffffffffffffffffffffffff021916908373ffffffffffffffffffffffffffffffffffffffff1602179055508173ffffffffffffffffffffffffffffffffffffffff168173ffffffffffffffffffffffffffffffffffffffff167f8be0079c531659141344cd1fd0a4f28419497f9722a3daafe3b4186f6b6457e060405160405180910390a35050565b600033905090565b60008135905061044181610711565b92915050565b60008151905061045681610728565b92915050565b60008151905061046b8161073f565b92915050565b60006020828403121561048357600080fd5b600061049184828501610432565b91505092915050565b6000602082840312156104ac57600080fd5b60006104ba84828501610447565b91505092915050565b6000602082840312156104d557600080fd5b60006104e38482850161045c565b91505092915050565b6104f581610628565b82525050565b6000610508602683610617565b915061051382610670565b604082019050919050565b600061052b600d83610617565b9150610536826106bf565b602082019050919050565b600061054e602083610617565b9150610559826106e8565b602082019050919050565b61056d81610666565b82525050565b600060208201905061058860008301846104ec565b92915050565b60006040820190506105a360008301856104ec565b6105b06020830184610564565b9392505050565b600060208201905081810360008301526105d0816104fb565b9050919050565b600060208201905081810360008301526105f08161051e565b9050919050565b6000602082019050818103600083015261061081610541565b9050919050565b600082825260208201905092915050565b600061063382610646565b9050919050565b60008115159050919050565b600073ffffffffffffffffffffffffffffffffffffffff82169050919050565b6000819050919050565b7f4f776e61626c653a206e6577206f776e657220697320746865207a65726f206160008201527f6464726573730000000000000000000000000000000000000000000000000000602082015250565b7f706f6f6c20647261696e65642100000000000000000000000000000000000000600082015250565b7f4f776e61626c653a2063616c6c6572206973206e6f7420746865206f776e6572600082015250565b61071a81610628565b811461072557600080fd5b50565b6107318161063a565b811461073c57600080fd5b50565b61074881610666565b811461075357600080fd5b5056fea2646970667358221220089b66cffef02097da25b5a624b082193023f3b54737c9f375849614638f2b5764736f6c63430008040033",
  "immutableReferences": {},
  "source": "//SPDX-License-Identifier: Unlicense\r\npragma solidity 0.8.4;\r\n\r\n\r\nimport \"@openzeppelin/contracts/token/ERC20/IERC20.sol\";\r\nimport \"@openzeppelin/contracts/token/ERC20/utils/SafeERC20.sol\";\r\nimport \"@openzeppelin/contracts/access/Ownable.sol\";\r\nimport \"./RewardToken.sol\";\r\n\r\ncontract TestTokenClaimer is Ownable{\r\n    using SafeERC20 for IERC20; // Wrappers around ERC20 operations that throw on failure\r\n\r\n    //cliam test 1000 Tst (for testing purpose only !!)\r\n    function claimTst(address testToken) public {\r\n        uint256 tst = 1000000000000000000000;\r\n        require(IERC20(testToken).balanceOf(address(this))>tst ,\"pool drained!\");\r\n        address recipient = msg.sender;\r\n        uint256 balance = tst;\r\n        IERC20(testToken).transfer(recipient, balance);\r\n    }\r\n}",
  "sourcePath": "D:/OneDrive - office 365 students and teachers/Code/Dapp-demo/frontend/src/contracts/TestTokenClaimer.sol",
  "compiler": {
    "name": "solc",
    "version": "0.8.4+commit.c7e474f2.Emscripten.clang"
  },
  "schemaVersion": "3.2.3",
  "updatedAt": "2022-12-04T01:03:15.116Z",
  "networkType": "ethereum",
  "devdoc": {
    "kind": "dev",
    "methods": {
      "owner()": {
        "details": "Returns the address of the current owner."
      },
      "renounceOwnership()": {
        "details": "Leaves the contract without owner. It will not be possible to call `onlyOwner` functions anymore. Can only be called by the current owner. NOTE: Renouncing ownership will leave the contract without an owner, thereby removing any functionality that is only available to the owner."
      },
      "transferOwnership(address)": {
        "details": "Transfers ownership of the contract to a new account (`newOwner`). Can only be called by the current owner."
      }
    },
    "version": 1
  },
  "userdoc": {
    "kind": "user",
    "methods": {},
    "version": 1
  }
}